{
  "abi": [
    {
      "inputs": [
        {
          "internalType": "contract IEntryPoint",
          "name": "entryPoint",
          "type": "address"
        }
      ],
      "stateMutability": "nonpayable",
      "type": "constructor"
    },
    {
      "inputs": [],
      "name": "AlreadyInitialized",
      "type": "error"
    },
    {
      "inputs": [],
      "name": "InvalidClientData",
      "type": "error"
    },
    {
      "inputs": [],
      "name": "InvalidClientData",
      "type": "error"
    },
    {
      "inputs": [],
      "name": "NotInitializing",
      "type": "error"
    },
    {
      "anonymous": false,
      "inputs": [
        {
          "indexed": false,
          "internalType": "uint8",
          "name": "version",
          "type": "uint8"
        }
      ],
      "name": "Initialized",
      "type": "event"
    },
    {
      "anonymous": false,
      "inputs": [
        {
          "indexed": true,
          "internalType": "address",
          "name": "accountAddress",
          "type": "address"
        },
        {
          "indexed": true,
          "internalType": "address",
          "name": "precomputationsAddress",
          "type": "address"
        }
      ],
      "name": "WebAuthnAccountInitialized",
      "type": "event"
    },
    {
      "inputs": [],
      "name": "entryPoint",
      "outputs": [
        {
          "internalType": "contract IEntryPoint",
          "name": "",
          "type": "address"
        }
      ],
      "stateMutability": "view",
      "type": "function"
    },
    {
      "inputs": [],
      "name": "getCredentialId",
      "outputs": [
        {
          "internalType": "string",
          "name": "",
          "type": "string"
        }
      ],
      "stateMutability": "view",
      "type": "function"
    },
    {
      "inputs": [],
      "name": "getNonce",
      "outputs": [
        {
          "internalType": "uint256",
          "name": "",
          "type": "uint256"
        }
      ],
      "stateMutability": "view",
      "type": "function"
    },
    {
      "inputs": [],
      "name": "getPrecomputationsAddress",
      "outputs": [
        {
          "internalType": "address",
          "name": "",
          "type": "address"
        }
      ],
      "stateMutability": "view",
      "type": "function"
    },
    {
      "inputs": [
        {
          "components": [
            {
              "internalType": "uint256",
              "name": "x",
              "type": "uint256"
            },
            {
              "internalType": "uint256",
              "name": "y",
              "type": "uint256"
            }
          ],
          "internalType": "struct DevicePublicKey",
          "name": "devicePublicKey",
          "type": "tuple"
        },
        {
          "internalType": "string",
          "name": "credentialId",
          "type": "string"
        },
        {
          "internalType": "address",
          "name": "precomputationsAddress",
          "type": "address"
        }
      ],
      "name": "initialize",
      "outputs": [],
      "stateMutability": "nonpayable",
      "type": "function"
    },
    {
      "inputs": [
        {
          "components": [
            {
              "internalType": "address",
              "name": "sender",
              "type": "address"
            },
            {
              "internalType": "uint256",
              "name": "nonce",
              "type": "uint256"
            },
            {
              "internalType": "bytes",
              "name": "initCode",
              "type": "bytes"
            },
            {
              "internalType": "bytes",
              "name": "callData",
              "type": "bytes"
            },
            {
              "internalType": "uint256",
              "name": "callGasLimit",
              "type": "uint256"
            },
            {
              "internalType": "uint256",
              "name": "verificationGasLimit",
              "type": "uint256"
            },
            {
              "internalType": "uint256",
              "name": "preVerificationGas",
              "type": "uint256"
            },
            {
              "internalType": "uint256",
              "name": "maxFeePerGas",
              "type": "uint256"
            },
            {
              "internalType": "uint256",
              "name": "maxPriorityFeePerGas",
              "type": "uint256"
            },
            {
              "internalType": "bytes",
              "name": "paymasterAndData",
              "type": "bytes"
            },
            {
              "internalType": "bytes",
              "name": "signature",
              "type": "bytes"
            }
          ],
          "internalType": "struct UserOperation",
          "name": "userOp",
          "type": "tuple"
        },
        {
          "internalType": "bytes32",
          "name": "userOpHash",
          "type": "bytes32"
        },
        {
          "internalType": "uint256",
          "name": "missingAccountFunds",
          "type": "uint256"
        }
      ],
      "name": "validateUserOp",
      "outputs": [
        {
          "internalType": "uint256",
          "name": "validationData",
          "type": "uint256"
        }
      ],
      "stateMutability": "nonpayable",
      "type": "function"
    },
    {
      "stateMutability": "payable",
      "type": "receive"
    }
  ],
  "bytecode": {
    "object": "0x60a060405234801561001057600080fd5b506040516111ba3803806111ba83398101604081905261002f916100c5565b6001600160a01b03811660805261004461004a565b506100f5565b600054610100900460ff16156100725760405162dc149f60e41b815260040160405180910390fd5b60005460ff908116146100c3576000805460ff191660ff9081179091556040519081527f7f26b83ff96e1f2b6a682f133852f6798a09c465da95921460cefb38474024989060200160405180910390a15b565b6000602082840312156100d757600080fd5b81516001600160a01b03811681146100ee57600080fd5b9392505050565b60805161109d61011d6000396000818160cd015281816101f901526103ee015261109d6000f3fe6080604052600436106100595760003560e01c80632a1690cb146100655780633a871cdd14610090578063b0d691fe146100be578063b52e85fa14610105578063b594313f14610127578063d087d2881461014557600080fd5b3661006057005b600080fd5b34801561007157600080fd5b5061007a61015a565b6040516100879190610a92565b60405180910390f35b34801561009c57600080fd5b506100b06100ab366004610ac5565b6101ec565b604051908152602001610087565b3480156100ca57600080fd5b507f00000000000000000000000000000000000000000000000000000000000000005b6040516001600160a01b039091168152602001610087565b34801561011157600080fd5b50610125610120366004610bf4565b610286565b005b34801561013357600080fd5b506005546001600160a01b03166100ed565b34801561015157600080fd5b506100b06103ea565b60606003805461016990610c77565b80601f016020809104026020016040519081016040528092919081815260200182805461019590610c77565b80156101e25780601f106101b7576101008083540402835291602001916101e2565b820191906000526020600020905b8154815290600101906020018083116101c557829003601f168201915b5050505050905090565b6000336001600160a01b037f0000000000000000000000000000000000000000000000000000000000000000161461026a5760405162461bcd60e51b815260206004820152601c60248201527f6163636f756e743a206e6f742066726f6d20456e747279506f696e7400000000604482015260640160405180910390fd5b6102748484610490565b905061027f82610565565b9392505050565b600054610100900460ff16158080156102a65750600054600160ff909116105b1580156102c45750303b1580156102c2575060005460ff166001145b155b156102e15760405162dc149f60e41b815260040160405180910390fd5b6000805460ff191660011790558015610304576000805461ff0019166101001790555b83516001556020840151600255600361031d8482610d00565b506000600360405161032f9190610dc0565b60408051918290038220600480546001600160c01b0319169282901c92909217909155600580546001600160a01b0387166001600160a01b031990911681179091559092509030907f7cf99e62a5f7063dd6ab3b6ab180e90197e17e5794e094f87d917c4a8a3b25a390600090a35080156103e4576000805461ff0019169055604051600181527f7f26b83ff96e1f2b6a682f133852f6798a09c465da95921460cefb38474024989060200160405180910390a15b50505050565b60007f000000000000000000000000000000000000000000000000000000000000000060048054604051631aab3f0d60e11b815230928101929092526001600160c01b031660248201526001600160a01b0391909116906335567e1a90604401602060405180830381865afa158015610467573d6000803e3d6000fd5b505050506040513d601f19601f8201168201806040525081019061048b9190610e36565b905090565b60008080806104a26060870187610e4f565b8101906104af9190610ebd565b604080516060810182528481526020810184905263ffffffff831691810191909152929550909350915060006104e9610140890189610e4f565b8101906104f69190610f33565b60055490915060009061053e90839085906001600160a01b03166105186103ea565b60405160200161052a91815260200190565b6040516020818303038152906040526105bf565b905080610554576001965050505050505061055f565b600096505050505050505b92915050565b80156105bc57604051600090339060001990849084818181858888f193505050503d80600081146105b2576040519150601f19603f3d011682016040523d82523d6000602084013e6105b7565b606091505b505050505b50565b6000808390506105d885602001518487604001516107b5565b8451516000906105e9906020610f65565b67ffffffffffffffff81111561060157610601610b19565b6040519080825280601f01601f19166020018201604052801561062b576020820181803683370190505b508651805191925061064191600090848261088d565b506106ca600287602001516040516106599190610f78565b602060405180830381855afa158015610676573d6000803e3d6000fd5b5050506040513d601f19601f820116820180604052508101906106999190610e36565b6040516020016106ab91815260200190565b60405160208183030381529060405260006020848a600001515161088d565b5060006002826040516106dd9190610f78565b602060405180830381855afa1580156106fa573d6000803e3d6000fd5b5050506040513d601f19601f8201168201806040525081019061071d9190610e36565b6040805180820182528a5181526020808c01519082015290516316b9dbd960e31b81529192506000916001600160a01b0386169163b5cedec891610765918691600401610f94565b6020604051808303816000875af1158015610784573d6000803e3d6000fd5b505050506040513d601f19601f820116820180604052508101906107a89190610fcc565b9998505050505050505050565b60006107c08361091b565b6040516020016107d09190610f78565b60405160208183030381529060405290506000815167ffffffffffffffff8111156107fd576107fd610b19565b6040519080825280601f01601f191660200182016040528015610827576020820181803683370190505b50905061083f858463ffffffff16835184600061088d565b50806040516020016108519190610f78565b604051602081830303815290604052805190602001208280519060200120146105b75760405163ebab5d2960e01b815260040160405180910390fd5b6060600061089b8386610f65565b905080845110156108ab57600080fd5b60006108b8876020610f65565b905060006108c7856020610f65565b90505b866108d6896020610f65565b6108e09190610f65565b82101561090e5788820151868201526108fa602083610f65565b9150610907602082610f65565b90506108ca565b5093979650505050505050565b6060815160000361093a57505060408051602081019091526000815290565b600060405180606001604052806040815260200161102860409139905060006003845160026109699190610f65565b6109739190610fee565b61097e906004611010565b67ffffffffffffffff81111561099657610996610b19565b6040519080825280601f01601f1916602001820160405280156109c0576020820181803683370190505b509050600182016020820185865187015b80821015610a2c576003820191508151603f8160121c168501518453600184019350603f81600c1c168501518453600184019350603f8160061c168501518453600184019350603f81168501518453506001830192506109d1565b5050600386510660018114610a485760028114610a5b57610a63565b603d6001830353603d6002830353610a63565b603d60018303535b509195945050505050565b60005b83811015610a89578181015183820152602001610a71565b50506000910152565b6020815260008251806020840152610ab1816040850160208701610a6e565b601f01601f19169190910160400192915050565b600080600060608486031215610ada57600080fd5b833567ffffffffffffffff811115610af157600080fd5b84016101608187031215610b0457600080fd5b95602085013595506040909401359392505050565b634e487b7160e01b600052604160045260246000fd5b600060408284031215610b4157600080fd5b6040516040810181811067ffffffffffffffff82111715610b6457610b64610b19565b604052823581526020928301359281019290925250919050565b600067ffffffffffffffff80841115610b9957610b99610b19565b604051601f8501601f19908116603f01168101908282118183101715610bc157610bc1610b19565b81604052809350858152868686011115610bda57600080fd5b858560208301376000602087830101525050509392505050565b600080600060808486031215610c0957600080fd5b610c138585610b2f565b9250604084013567ffffffffffffffff811115610c2f57600080fd5b8401601f81018613610c4057600080fd5b610c4f86823560208401610b7e565b92505060608401356001600160a01b0381168114610c6c57600080fd5b809150509250925092565b600181811c90821680610c8b57607f821691505b602082108103610cab57634e487b7160e01b600052602260045260246000fd5b50919050565b601f821115610cfb57600081815260208120601f850160051c81016020861015610cd85750805b601f850160051c820191505b81811015610cf757828155600101610ce4565b5050505b505050565b815167ffffffffffffffff811115610d1a57610d1a610b19565b610d2e81610d288454610c77565b84610cb1565b602080601f831160018114610d635760008415610d4b5750858301515b600019600386901b1c1916600185901b178555610cf7565b600085815260208120601f198616915b82811015610d9257888601518255948401946001909101908401610d73565b5085821015610db05787850151600019600388901b60f8161c191681555b5050505050600190811b01905550565b6000808354610dce81610c77565b60018281168015610de65760018114610dfb57610e2a565b60ff1984168752821515830287019450610e2a565b8760005260208060002060005b85811015610e215781548a820152908401908201610e08565b50505082870194505b50929695505050505050565b600060208284031215610e4857600080fd5b5051919050565b6000808335601e19843603018112610e6657600080fd5b83018035915067ffffffffffffffff821115610e8157600080fd5b602001915036819003821315610e9657600080fd5b9250929050565b600082601f830112610eae57600080fd5b61027f83833560208501610b7e565b600080600060608486031215610ed257600080fd5b833567ffffffffffffffff80821115610eea57600080fd5b610ef687838801610e9d565b94506020860135915080821115610f0c57600080fd5b50610f1986828701610e9d565b925050604084013563ffffffff81168114610c6c57600080fd5b600060408284031215610f4557600080fd5b61027f8383610b2f565b634e487b7160e01b600052601160045260246000fd5b8082018082111561055f5761055f610f4f565b60008251610f8a818460208701610a6e565b9190910192915050565b8281526060810160208083018460005b6002811015610fc157815183529183019190830190600101610fa4565b505050509392505050565b600060208284031215610fde57600080fd5b8151801515811461027f57600080fd5b60008261100b57634e487b7160e01b600052601260045260246000fd5b500490565b808202811582820484141761055f5761055f610f4f56fe4142434445464748494a4b4c4d4e4f505152535455565758595a6162636465666768696a6b6c6d6e6f707172737475767778797a303132333435363738392d5fa26469706673582212208793c7fe5983e5436d779988f5d6da2357bba177baac7267f2b4f78ec965c6a364736f6c63430008140033",
    "linkReferences": {}
  },
  "methodIdentifiers": {
    "entryPoint()": "b0d691fe",
    "getCredentialId()": "2a1690cb",
    "getNonce()": "d087d288",
    "getPrecomputationsAddress()": "b594313f",
    "initialize((uint256,uint256),string,address)": "b52e85fa",
    "validateUserOp((address,uint256,bytes,bytes,uint256,uint256,uint256,uint256,uint256,bytes,bytes),bytes32,uint256)": "3a871cdd"
  },
  "id": 41
}