{
  "abi": [
    {
      "inputs": [
        {
          "internalType": "contract IEntryPoint",
          "name": "entryPoint",
          "type": "address"
        }
      ],
      "stateMutability": "nonpayable",
      "type": "constructor"
    },
    {
      "inputs": [],
      "name": "AlreadyInitialized",
      "type": "error"
    },
    {
      "inputs": [],
      "name": "InvalidClientData",
      "type": "error"
    },
    {
      "inputs": [],
      "name": "InvalidClientData",
      "type": "error"
    },
    {
      "inputs": [],
      "name": "NotInitializing",
      "type": "error"
    },
    {
      "anonymous": false,
      "inputs": [
        {
          "indexed": false,
          "internalType": "uint8",
          "name": "version",
          "type": "uint8"
        }
      ],
      "name": "Initialized",
      "type": "event"
    },
    {
      "anonymous": false,
      "inputs": [
        {
          "indexed": true,
          "internalType": "address",
          "name": "accountAddress",
          "type": "address"
        },
        {
          "indexed": true,
          "internalType": "address",
          "name": "precomputationsAddress",
          "type": "address"
        }
      ],
      "name": "WebAuthnAccountInitialized",
      "type": "event"
    },
    {
      "inputs": [],
      "name": "entryPoint",
      "outputs": [
        {
          "internalType": "contract IEntryPoint",
          "name": "",
          "type": "address"
        }
      ],
      "stateMutability": "view",
      "type": "function"
    },
    {
      "inputs": [],
      "name": "getCredentialId",
      "outputs": [
        {
          "internalType": "string",
          "name": "",
          "type": "string"
        }
      ],
      "stateMutability": "view",
      "type": "function"
    },
    {
      "inputs": [],
      "name": "getNonce",
      "outputs": [
        {
          "internalType": "uint256",
          "name": "",
          "type": "uint256"
        }
      ],
      "stateMutability": "view",
      "type": "function"
    },
    {
      "inputs": [],
      "name": "getPrecomputationsAddress",
      "outputs": [
        {
          "internalType": "address",
          "name": "",
          "type": "address"
        }
      ],
      "stateMutability": "view",
      "type": "function"
    },
    {
      "inputs": [
        {
          "components": [
            {
              "internalType": "uint256",
              "name": "x",
              "type": "uint256"
            },
            {
              "internalType": "uint256",
              "name": "y",
              "type": "uint256"
            }
          ],
          "internalType": "struct DevicePublicKey",
          "name": "devicePublicKey",
          "type": "tuple"
        },
        {
          "internalType": "string",
          "name": "credentialId",
          "type": "string"
        },
        {
          "internalType": "address",
          "name": "precomputationsAddress",
          "type": "address"
        }
      ],
      "name": "initialize",
      "outputs": [],
      "stateMutability": "nonpayable",
      "type": "function"
    },
    {
      "inputs": [
        {
          "components": [
            {
              "internalType": "address",
              "name": "sender",
              "type": "address"
            },
            {
              "internalType": "uint256",
              "name": "nonce",
              "type": "uint256"
            },
            {
              "internalType": "bytes",
              "name": "initCode",
              "type": "bytes"
            },
            {
              "internalType": "bytes",
              "name": "callData",
              "type": "bytes"
            },
            {
              "internalType": "uint256",
              "name": "callGasLimit",
              "type": "uint256"
            },
            {
              "internalType": "uint256",
              "name": "verificationGasLimit",
              "type": "uint256"
            },
            {
              "internalType": "uint256",
              "name": "preVerificationGas",
              "type": "uint256"
            },
            {
              "internalType": "uint256",
              "name": "maxFeePerGas",
              "type": "uint256"
            },
            {
              "internalType": "uint256",
              "name": "maxPriorityFeePerGas",
              "type": "uint256"
            },
            {
              "internalType": "bytes",
              "name": "paymasterAndData",
              "type": "bytes"
            },
            {
              "internalType": "bytes",
              "name": "signature",
              "type": "bytes"
            }
          ],
          "internalType": "struct UserOperation",
          "name": "userOp",
          "type": "tuple"
        },
        {
          "internalType": "bytes32",
          "name": "userOpHash",
          "type": "bytes32"
        },
        {
          "internalType": "uint256",
          "name": "missingAccountFunds",
          "type": "uint256"
        }
      ],
      "name": "validateUserOp",
      "outputs": [
        {
          "internalType": "uint256",
          "name": "validationData",
          "type": "uint256"
        }
      ],
      "stateMutability": "nonpayable",
      "type": "function"
    },
    {
      "stateMutability": "payable",
      "type": "receive"
    }
  ],
  "bytecode": {
    "object": "0x60a060405234801561001057600080fd5b506040516112f13803806112f183398101604081905261002f916100c5565b6001600160a01b03811660805261004461004a565b506100f5565b600054610100900460ff16156100725760405162dc149f60e41b815260040160405180910390fd5b60005460ff908116146100c3576000805460ff191660ff9081179091556040519081527f7f26b83ff96e1f2b6a682f133852f6798a09c465da95921460cefb38474024989060200160405180910390a15b565b6000602082840312156100d757600080fd5b81516001600160a01b03811681146100ee57600080fd5b9392505050565b6080516111d461011d6000396000818160cd015281816101f901526103ee01526111d46000f3fe6080604052600436106100595760003560e01c80632a1690cb146100655780633a871cdd14610090578063b0d691fe146100be578063b52e85fa14610105578063b594313f14610127578063d087d2881461014557600080fd5b3661006057005b600080fd5b34801561007157600080fd5b5061007a61015a565b6040516100879190610bba565b60405180910390f35b34801561009c57600080fd5b506100b06100ab366004610bed565b6101ec565b604051908152602001610087565b3480156100ca57600080fd5b507f00000000000000000000000000000000000000000000000000000000000000005b6040516001600160a01b039091168152602001610087565b34801561011157600080fd5b50610125610120366004610d1c565b610286565b005b34801561013357600080fd5b506005546001600160a01b03166100ed565b34801561015157600080fd5b506100b06103ea565b60606003805461016990610d9f565b80601f016020809104026020016040519081016040528092919081815260200182805461019590610d9f565b80156101e25780601f106101b7576101008083540402835291602001916101e2565b820191906000526020600020905b8154815290600101906020018083116101c557829003601f168201915b5050505050905090565b6000336001600160a01b037f0000000000000000000000000000000000000000000000000000000000000000161461026a5760405162461bcd60e51b815260206004820152601c60248201527f6163636f756e743a206e6f742066726f6d20456e747279506f696e7400000000604482015260640160405180910390fd5b6102748484610490565b905061027f8261056b565b9392505050565b600054610100900460ff16158080156102a65750600054600160ff909116105b1580156102c45750303b1580156102c2575060005460ff166001145b155b156102e15760405162dc149f60e41b815260040160405180910390fd5b6000805460ff191660011790558015610304576000805461ff0019166101001790555b83516001556020840151600255600361031d8482610e28565b506000600360405161032f9190610ee8565b60408051918290038220600480546001600160c01b0319169282901c92909217909155600580546001600160a01b0387166001600160a01b031990911681179091559092509030907f7cf99e62a5f7063dd6ab3b6ab180e90197e17e5794e094f87d917c4a8a3b25a390600090a35080156103e4576000805461ff0019169055604051600181527f7f26b83ff96e1f2b6a682f133852f6798a09c465da95921460cefb38474024989060200160405180910390a15b50505050565b60007f000000000000000000000000000000000000000000000000000000000000000060048054604051631aab3f0d60e11b815230928101929092526001600160c01b031660248201526001600160a01b0391909116906335567e1a90604401602060405180830381865afa158015610467573d6000803e3d6000fd5b505050506040513d601f19601f8201168201806040525081019061048b9190610f5a565b905090565b60008080806104a26060870187610f73565b8101906104af9190610fe1565b604080516060810182528481526020810184905263ffffffff831691810191909152929550909350915060006104e9610140890189610f73565b8101906104f69190611057565b60055490915060009061054490839085906001600160a01b031661052061051b6103ea565b6105c5565b6040516020016105309190611073565b604051602081830303815290604052610658565b90508061055a5760019650505050505050610565565b600096505050505050505b92915050565b80156105c257604051600090339060001990849084818181858888f193505050503d80600081146105b8576040519150601f19603f3d011682016040523d82523d6000602084013e6105bd565b606091505b505050505b50565b606060006105d28361084e565b600101905060008167ffffffffffffffff8111156105f2576105f2610c41565b6040519080825280601f01601f19166020018201604052801561061c576020820181803683370190505b5090508181016020015b600019016f181899199a1a9b1b9c1cb0b131b232b360811b600a86061a8153600a850494508461062657509392505050565b6000808390506106718560200151848760400151610926565b8451516000906106829060206110a5565b67ffffffffffffffff81111561069a5761069a610c41565b6040519080825280601f01601f1916602001820160405280156106c4576020820181803683370190505b50865180519192506106da9160009084826109df565b50610763600287602001516040516106f29190611073565b602060405180830381855afa15801561070f573d6000803e3d6000fd5b5050506040513d601f19601f820116820180604052508101906107329190610f5a565b60405160200161074491815260200190565b60405160208183030381529060405260006020848a60000151516109df565b5060006002826040516107769190611073565b602060405180830381855afa158015610793573d6000803e3d6000fd5b5050506040513d601f19601f820116820180604052508101906107b69190610f5a565b6040805180820182528a5181526020808c01519082015290516316b9dbd960e31b81529192506000916001600160a01b0386169163b5cedec8916107fe9186916004016110b8565b6020604051808303816000875af115801561081d573d6000803e3d6000fd5b505050506040513d601f19601f8201168201806040525081019061084191906110f0565b9998505050505050505050565b60008072184f03e93ff9f4daa797ed6e38ed64bf6a1f0160401b831061088d5772184f03e93ff9f4daa797ed6e38ed64bf6a1f0160401b830492506040015b6d04ee2d6d415b85acef810000000083106108b9576d04ee2d6d415b85acef8100000000830492506020015b662386f26fc1000083106108d757662386f26fc10000830492506010015b6305f5e10083106108ef576305f5e100830492506008015b612710831061090357612710830492506004015b60648310610915576064830492506002015b600a83106105655760010192915050565b600061093183610a6d565b6040516020016109419190611073565b60405160208183030381529060405290506000815167ffffffffffffffff81111561096e5761096e610c41565b6040519080825280601f01601f191660200182016040528015610998576020820181803683370190505b5090506109b0858463ffffffff1683518460006109df565b5080805190602001208280519060200120146105bd5760405163ebab5d2960e01b815260040160405180910390fd5b606060006109ed83866110a5565b905080845110156109fd57600080fd5b6000610a0a8760206110a5565b90506000610a198560206110a5565b90505b86610a288960206110a5565b610a3291906110a5565b821015610a60578882015186820152610a4c6020836110a5565b9150610a596020826110a5565b9050610a1c565b5093979650505050505050565b60608151600003610a8c57505060408051602081019091526000815290565b600060405180606001604052806040815260200161115f60409139905060006001600385516002610abd91906110a5565b610ac79190611112565b610ad2906004611134565b610adc919061114b565b67ffffffffffffffff811115610af457610af4610c41565b6040519080825280601f01601f191660200182016040528015610b1e576020820181803683370190505b509050600182016020820185865187015b80821015610b8a576003820191508151603f8160121c168501518453600184019350603f81600c1c168501518453600184019350603f8160061c168501518453600184019350603f8116850151845350600183019250610b2f565b50929695505050505050565b60005b83811015610bb1578181015183820152602001610b99565b50506000910152565b6020815260008251806020840152610bd9816040850160208701610b96565b601f01601f19169190910160400192915050565b600080600060608486031215610c0257600080fd5b833567ffffffffffffffff811115610c1957600080fd5b84016101608187031215610c2c57600080fd5b95602085013595506040909401359392505050565b634e487b7160e01b600052604160045260246000fd5b600060408284031215610c6957600080fd5b6040516040810181811067ffffffffffffffff82111715610c8c57610c8c610c41565b604052823581526020928301359281019290925250919050565b600067ffffffffffffffff80841115610cc157610cc1610c41565b604051601f8501601f19908116603f01168101908282118183101715610ce957610ce9610c41565b81604052809350858152868686011115610d0257600080fd5b858560208301376000602087830101525050509392505050565b600080600060808486031215610d3157600080fd5b610d3b8585610c57565b9250604084013567ffffffffffffffff811115610d5757600080fd5b8401601f81018613610d6857600080fd5b610d7786823560208401610ca6565b92505060608401356001600160a01b0381168114610d9457600080fd5b809150509250925092565b600181811c90821680610db357607f821691505b602082108103610dd357634e487b7160e01b600052602260045260246000fd5b50919050565b601f821115610e2357600081815260208120601f850160051c81016020861015610e005750805b601f850160051c820191505b81811015610e1f57828155600101610e0c565b5050505b505050565b815167ffffffffffffffff811115610e4257610e42610c41565b610e5681610e508454610d9f565b84610dd9565b602080601f831160018114610e8b5760008415610e735750858301515b600019600386901b1c1916600185901b178555610e1f565b600085815260208120601f198616915b82811015610eba57888601518255948401946001909101908401610e9b565b5085821015610ed85787850151600019600388901b60f8161c191681555b5050505050600190811b01905550565b6000808354610ef681610d9f565b60018281168015610f0e5760018114610f2357610b8a565b60ff1984168752821515830287019450610b8a565b8760005260208060002060005b85811015610f495781548a820152908401908201610f30565b505050959091019695505050505050565b600060208284031215610f6c57600080fd5b5051919050565b6000808335601e19843603018112610f8a57600080fd5b83018035915067ffffffffffffffff821115610fa557600080fd5b602001915036819003821315610fba57600080fd5b9250929050565b600082601f830112610fd257600080fd5b61027f83833560208501610ca6565b600080600060608486031215610ff657600080fd5b833567ffffffffffffffff8082111561100e57600080fd5b61101a87838801610fc1565b9450602086013591508082111561103057600080fd5b5061103d86828701610fc1565b925050604084013563ffffffff81168114610d9457600080fd5b60006040828403121561106957600080fd5b61027f8383610c57565b60008251611085818460208701610b96565b9190910192915050565b634e487b7160e01b600052601160045260246000fd5b808201808211156105655761056561108f565b8281526060810160208083018460005b60028110156110e5578151835291830191908301906001016110c8565b505050509392505050565b60006020828403121561110257600080fd5b8151801515811461027f57600080fd5b60008261112f57634e487b7160e01b600052601260045260246000fd5b500490565b80820281158282048414176105655761056561108f565b818103818111156105655761056561108f56fe4142434445464748494a4b4c4d4e4f505152535455565758595a6162636465666768696a6b6c6d6e6f707172737475767778797a303132333435363738392d5fa26469706673582212209735780b62cfda8c939b015778345bfb4c2abae5f31d03eb9dcbe9f48321c18664736f6c63430008140033",
    "linkReferences": {}
  },
  "methodIdentifiers": {
    "entryPoint()": "b0d691fe",
    "getCredentialId()": "2a1690cb",
    "getNonce()": "d087d288",
    "getPrecomputationsAddress()": "b594313f",
    "initialize((uint256,uint256),string,address)": "b52e85fa",
    "validateUserOp((address,uint256,bytes,bytes,uint256,uint256,uint256,uint256,uint256,bytes,bytes),bytes32,uint256)": "3a871cdd"
  },
  "id": 39
}